{
  "_format": "hh-sol-artifact-1",
  "contractName": "SecureMate",
  "sourceName": "contracts/Dstore.sol",
  "abi": [
    {
      "inputs": [],
      "stateMutability": "nonpayable",
      "type": "constructor"
    },
    {
      "anonymous": false,
      "inputs": [
        {
          "indexed": true,
          "internalType": "address",
          "name": "owner",
          "type": "address"
        },
        {
          "indexed": true,
          "internalType": "address",
          "name": "approved",
          "type": "address"
        },
        {
          "indexed": true,
          "internalType": "uint256",
          "name": "tokenId",
          "type": "uint256"
        }
      ],
      "name": "Approval",
      "type": "event"
    },
    {
      "anonymous": false,
      "inputs": [
        {
          "indexed": true,
          "internalType": "address",
          "name": "owner",
          "type": "address"
        },
        {
          "indexed": true,
          "internalType": "address",
          "name": "operator",
          "type": "address"
        },
        {
          "indexed": false,
          "internalType": "bool",
          "name": "approved",
          "type": "bool"
        }
      ],
      "name": "ApprovalForAll",
      "type": "event"
    },
    {
      "anonymous": false,
      "inputs": [
        {
          "indexed": true,
          "internalType": "uint256",
          "name": "tokenId",
          "type": "uint256"
        },
        {
          "indexed": false,
          "internalType": "address",
          "name": "seller",
          "type": "address"
        },
        {
          "indexed": false,
          "internalType": "address",
          "name": "owner",
          "type": "address"
        },
        {
          "indexed": false,
          "internalType": "uint256",
          "name": "price",
          "type": "uint256"
        },
        {
          "indexed": false,
          "internalType": "bool",
          "name": "sold",
          "type": "bool"
        },
        {
          "indexed": false,
          "internalType": "string",
          "name": "name",
          "type": "string"
        },
        {
          "indexed": false,
          "internalType": "string",
          "name": "description",
          "type": "string"
        },
        {
          "indexed": false,
          "internalType": "string",
          "name": "image",
          "type": "string"
        }
      ],
      "name": "MarketItemCreated",
      "type": "event"
    },
    {
      "anonymous": false,
      "inputs": [
        {
          "indexed": true,
          "internalType": "address",
          "name": "from",
          "type": "address"
        },
        {
          "indexed": true,
          "internalType": "address",
          "name": "to",
          "type": "address"
        },
        {
          "indexed": true,
          "internalType": "uint256",
          "name": "tokenId",
          "type": "uint256"
        }
      ],
      "name": "Transfer",
      "type": "event"
    },
    {
      "anonymous": false,
      "inputs": [
        {
          "indexed": false,
          "internalType": "uint256",
          "name": "id",
          "type": "uint256"
        },
        {
          "indexed": false,
          "internalType": "address payable",
          "name": "_address",
          "type": "address"
        },
        {
          "indexed": false,
          "internalType": "string",
          "name": "image",
          "type": "string"
        },
        {
          "indexed": false,
          "internalType": "string",
          "name": "name",
          "type": "string"
        },
        {
          "indexed": false,
          "internalType": "string",
          "name": "profile",
          "type": "string"
        },
        {
          "indexed": false,
          "internalType": "string",
          "name": "gender",
          "type": "string"
        },
        {
          "indexed": false,
          "internalType": "string",
          "name": "year",
          "type": "string"
        },
        {
          "indexed": false,
          "internalType": "string",
          "name": "country",
          "type": "string"
        },
        {
          "indexed": false,
          "internalType": "uint256",
          "name": "balance",
          "type": "uint256"
        }
      ],
      "name": "UserCreated",
      "type": "event"
    },
    {
      "inputs": [
        {
          "internalType": "address",
          "name": "to",
          "type": "address"
        },
        {
          "internalType": "uint256",
          "name": "tokenId",
          "type": "uint256"
        }
      ],
      "name": "approve",
      "outputs": [],
      "stateMutability": "nonpayable",
      "type": "function"
    },
    {
      "inputs": [
        {
          "internalType": "address",
          "name": "owner",
          "type": "address"
        }
      ],
      "name": "balanceOf",
      "outputs": [
        {
          "internalType": "uint256",
          "name": "",
          "type": "uint256"
        }
      ],
      "stateMutability": "view",
      "type": "function"
    },
    {
      "inputs": [
        {
          "internalType": "uint256",
          "name": "tokenId",
          "type": "uint256"
        }
      ],
      "name": "createMarketSale",
      "outputs": [],
      "stateMutability": "payable",
      "type": "function"
    },
    {
      "inputs": [
        {
          "internalType": "string",
          "name": "_image",
          "type": "string"
        },
        {
          "internalType": "string",
          "name": "_name",
          "type": "string"
        },
        {
          "internalType": "string",
          "name": "_profile",
          "type": "string"
        },
        {
          "internalType": "string",
          "name": "_gender",
          "type": "string"
        },
        {
          "internalType": "string",
          "name": "_year",
          "type": "string"
        },
        {
          "internalType": "string",
          "name": "_country",
          "type": "string"
        }
      ],
      "name": "createProfile",
      "outputs": [],
      "stateMutability": "nonpayable",
      "type": "function"
    },
    {
      "inputs": [
        {
          "internalType": "string",
          "name": "tokenURI",
          "type": "string"
        },
        {
          "internalType": "uint256",
          "name": "price",
          "type": "uint256"
        },
        {
          "internalType": "string",
          "name": "_name",
          "type": "string"
        },
        {
          "internalType": "string",
          "name": "_description",
          "type": "string"
        },
        {
          "internalType": "string",
          "name": "_image",
          "type": "string"
        }
      ],
      "name": "createToken",
      "outputs": [
        {
          "internalType": "uint256",
          "name": "",
          "type": "uint256"
        }
      ],
      "stateMutability": "payable",
      "type": "function"
    },
    {
      "inputs": [],
      "name": "fetchAllUsers",
      "outputs": [
        {
          "components": [
            {
              "internalType": "uint256",
              "name": "id",
              "type": "uint256"
            },
            {
              "internalType": "address payable",
              "name": "_address",
              "type": "address"
            },
            {
              "internalType": "string",
              "name": "image",
              "type": "string"
            },
            {
              "internalType": "string",
              "name": "name",
              "type": "string"
            },
            {
              "internalType": "string",
              "name": "profile",
              "type": "string"
            },
            {
              "internalType": "string",
              "name": "gender",
              "type": "string"
            },
            {
              "internalType": "string",
              "name": "year",
              "type": "string"
            },
            {
              "internalType": "string",
              "name": "country",
              "type": "string"
            },
            {
              "internalType": "uint256",
              "name": "balance",
              "type": "uint256"
            }
          ],
          "internalType": "struct SecureMate.User[]",
          "name": "",
          "type": "tuple[]"
        }
      ],
      "stateMutability": "view",
      "type": "function"
    },
    {
      "inputs": [],
      "name": "fetchItemsListed",
      "outputs": [
        {
          "components": [
            {
              "internalType": "uint256",
              "name": "tokenId",
              "type": "uint256"
            },
            {
              "internalType": "address payable",
              "name": "seller",
              "type": "address"
            },
            {
              "internalType": "address payable",
              "name": "owner",
              "type": "address"
            },
            {
              "internalType": "uint256",
              "name": "price",
              "type": "uint256"
            },
            {
              "internalType": "bool",
              "name": "sold",
              "type": "bool"
            },
            {
              "internalType": "string",
              "name": "name",
              "type": "string"
            },
            {
              "internalType": "string",
              "name": "description",
              "type": "string"
            },
            {
              "internalType": "string",
              "name": "image",
              "type": "string"
            }
          ],
          "internalType": "struct SecureMate.MarketItem[]",
          "name": "",
          "type": "tuple[]"
        }
      ],
      "stateMutability": "view",
      "type": "function"
    },
    {
      "inputs": [],
      "name": "fetchMarketItems",
      "outputs": [
        {
          "components": [
            {
              "internalType": "uint256",
              "name": "tokenId",
              "type": "uint256"
            },
            {
              "internalType": "address payable",
              "name": "seller",
              "type": "address"
            },
            {
              "internalType": "address payable",
              "name": "owner",
              "type": "address"
            },
            {
              "internalType": "uint256",
              "name": "price",
              "type": "uint256"
            },
            {
              "internalType": "bool",
              "name": "sold",
              "type": "bool"
            },
            {
              "internalType": "string",
              "name": "name",
              "type": "string"
            },
            {
              "internalType": "string",
              "name": "description",
              "type": "string"
            },
            {
              "internalType": "string",
              "name": "image",
              "type": "string"
            }
          ],
          "internalType": "struct SecureMate.MarketItem[]",
          "name": "",
          "type": "tuple[]"
        }
      ],
      "stateMutability": "view",
      "type": "function"
    },
    {
      "inputs": [],
      "name": "fetchMyNFTs",
      "outputs": [
        {
          "components": [
            {
              "internalType": "uint256",
              "name": "tokenId",
              "type": "uint256"
            },
            {
              "internalType": "address payable",
              "name": "seller",
              "type": "address"
            },
            {
              "internalType": "address payable",
              "name": "owner",
              "type": "address"
            },
            {
              "internalType": "uint256",
              "name": "price",
              "type": "uint256"
            },
            {
              "internalType": "bool",
              "name": "sold",
              "type": "bool"
            },
            {
              "internalType": "string",
              "name": "name",
              "type": "string"
            },
            {
              "internalType": "string",
              "name": "description",
              "type": "string"
            },
            {
              "internalType": "string",
              "name": "image",
              "type": "string"
            }
          ],
          "internalType": "struct SecureMate.MarketItem[]",
          "name": "",
          "type": "tuple[]"
        }
      ],
      "stateMutability": "view",
      "type": "function"
    },
    {
      "inputs": [
        {
          "internalType": "uint256",
          "name": "tokenId",
          "type": "uint256"
        }
      ],
      "name": "getApproved",
      "outputs": [
        {
          "internalType": "address",
          "name": "",
          "type": "address"
        }
      ],
      "stateMutability": "view",
      "type": "function"
    },
    {
      "inputs": [],
      "name": "getListingPrice",
      "outputs": [
        {
          "internalType": "uint256",
          "name": "",
          "type": "uint256"
        }
      ],
      "stateMutability": "view",
      "type": "function"
    },
    {
      "inputs": [],
      "name": "getSingleUser",
      "outputs": [
        {
          "components": [
            {
              "internalType": "uint256",
              "name": "id",
              "type": "uint256"
            },
            {
              "internalType": "address payable",
              "name": "_address",
              "type": "address"
            },
            {
              "internalType": "string",
              "name": "image",
              "type": "string"
            },
            {
              "internalType": "string",
              "name": "name",
              "type": "string"
            },
            {
              "internalType": "string",
              "name": "profile",
              "type": "string"
            },
            {
              "internalType": "string",
              "name": "gender",
              "type": "string"
            },
            {
              "internalType": "string",
              "name": "year",
              "type": "string"
            },
            {
              "internalType": "string",
              "name": "country",
              "type": "string"
            },
            {
              "internalType": "uint256",
              "name": "balance",
              "type": "uint256"
            }
          ],
          "internalType": "struct SecureMate.User",
          "name": "",
          "type": "tuple"
        }
      ],
      "stateMutability": "view",
      "type": "function"
    },
    {
      "inputs": [
        {
          "internalType": "address",
          "name": "owner",
          "type": "address"
        },
        {
          "internalType": "address",
          "name": "operator",
          "type": "address"
        }
      ],
      "name": "isApprovedForAll",
      "outputs": [
        {
          "internalType": "bool",
          "name": "",
          "type": "bool"
        }
      ],
      "stateMutability": "view",
      "type": "function"
    },
    {
      "inputs": [],
      "name": "isRegistered",
      "outputs": [
        {
          "internalType": "bool",
          "name": "",
          "type": "bool"
        }
      ],
      "stateMutability": "view",
      "type": "function"
    },
    {
      "inputs": [],
      "name": "name",
      "outputs": [
        {
          "internalType": "string",
          "name": "",
          "type": "string"
        }
      ],
      "stateMutability": "view",
      "type": "function"
    },
    {
      "inputs": [
        {
          "internalType": "uint256",
          "name": "tokenId",
          "type": "uint256"
        }
      ],
      "name": "ownerOf",
      "outputs": [
        {
          "internalType": "address",
          "name": "",
          "type": "address"
        }
      ],
      "stateMutability": "view",
      "type": "function"
    },
    {
      "inputs": [
        {
          "internalType": "address",
          "name": "",
          "type": "address"
        }
      ],
      "name": "registeredUsers",
      "outputs": [
        {
          "internalType": "bool",
          "name": "",
          "type": "bool"
        }
      ],
      "stateMutability": "view",
      "type": "function"
    },
    {
      "inputs": [
        {
          "internalType": "uint256",
          "name": "tokenId",
          "type": "uint256"
        },
        {
          "internalType": "uint256",
          "name": "price",
          "type": "uint256"
        }
      ],
      "name": "resellToken",
      "outputs": [],
      "stateMutability": "payable",
      "type": "function"
    },
    {
      "inputs": [
        {
          "internalType": "address",
          "name": "from",
          "type": "address"
        },
        {
          "internalType": "address",
          "name": "to",
          "type": "address"
        },
        {
          "internalType": "uint256",
          "name": "tokenId",
          "type": "uint256"
        }
      ],
      "name": "safeTransferFrom",
      "outputs": [],
      "stateMutability": "nonpayable",
      "type": "function"
    },
    {
      "inputs": [
        {
          "internalType": "address",
          "name": "from",
          "type": "address"
        },
        {
          "internalType": "address",
          "name": "to",
          "type": "address"
        },
        {
          "internalType": "uint256",
          "name": "tokenId",
          "type": "uint256"
        },
        {
          "internalType": "bytes",
          "name": "data",
          "type": "bytes"
        }
      ],
      "name": "safeTransferFrom",
      "outputs": [],
      "stateMutability": "nonpayable",
      "type": "function"
    },
    {
      "inputs": [
        {
          "internalType": "address",
          "name": "operator",
          "type": "address"
        },
        {
          "internalType": "bool",
          "name": "approved",
          "type": "bool"
        }
      ],
      "name": "setApprovalForAll",
      "outputs": [],
      "stateMutability": "nonpayable",
      "type": "function"
    },
    {
      "inputs": [
        {
          "internalType": "bytes4",
          "name": "interfaceId",
          "type": "bytes4"
        }
      ],
      "name": "supportsInterface",
      "outputs": [
        {
          "internalType": "bool",
          "name": "",
          "type": "bool"
        }
      ],
      "stateMutability": "view",
      "type": "function"
    },
    {
      "inputs": [],
      "name": "symbol",
      "outputs": [
        {
          "internalType": "string",
          "name": "",
          "type": "string"
        }
      ],
      "stateMutability": "view",
      "type": "function"
    },
    {
      "inputs": [
        {
          "internalType": "uint256",
          "name": "id",
          "type": "uint256"
        }
      ],
      "name": "tipUser",
      "outputs": [],
      "stateMutability": "payable",
      "type": "function"
    },
    {
      "inputs": [
        {
          "internalType": "uint256",
          "name": "tokenId",
          "type": "uint256"
        }
      ],
      "name": "tokenURI",
      "outputs": [
        {
          "internalType": "string",
          "name": "",
          "type": "string"
        }
      ],
      "stateMutability": "view",
      "type": "function"
    },
    {
      "inputs": [
        {
          "internalType": "address",
          "name": "from",
          "type": "address"
        },
        {
          "internalType": "address",
          "name": "to",
          "type": "address"
        },
        {
          "internalType": "uint256",
          "name": "tokenId",
          "type": "uint256"
        }
      ],
      "name": "transferFrom",
      "outputs": [],
      "stateMutability": "nonpayable",
      "type": "function"
    },
    {
      "inputs": [
        {
          "internalType": "uint256",
          "name": "_listingPrice",
          "type": "uint256"
        }
      ],
      "name": "updateListingPrice",
      "outputs": [],
      "stateMutability": "payable",
      "type": "function"
    },
    {
      "inputs": [],
      "name": "userCount",
      "outputs": [
        {
          "internalType": "uint256",
          "name": "",
          "type": "uint256"
        }
      ],
      "stateMutability": "view",
      "type": "function"
    }
  ],
  "bytecode": "0x60806040526000600a556658d15e17628000600b553480156200002157600080fd5b5060408051808201825260118152705365637572654d61746520546f6b656e7360781b60208083019182528351808501909452600384526214d35560ea1b9084015281519192916200007691600091620000a7565b5080516200008c906001906020840190620000a7565b5050600780546001600160a01b03191633179055506200018a565b828054620000b5906200014d565b90600052602060002090601f016020900481019282620000d9576000855562000124565b82601f10620000f457805160ff191683800117855562000124565b8280016001018555821562000124579182015b828111156200012457825182559160200191906001019062000107565b506200013292915062000136565b5090565b5b8082111562000132576000815560010162000137565b600181811c908216806200016257607f821691505b602082108114156200018457634e487b7160e01b600052602260045260246000fd5b50919050565b613a96806200019a6000396000f3fe6080604052600436106101475760003560e01c806301ffc9a71461014c57806306fdde031461018157806307973ccf146101a3578063081812fc146101c7578063095ea7b3146101ff5780630e50cee5146102215780630f08efe01461025157806312e8558514610273578063202e374014610288578063223668441461029d57806323b872dd146102b257806342842e0e146102d257806345f8fa80146102f25780636352211e1461030757806370a08231146103275780638865ba661461034757806395d89b41146103695780639e0d2da81461037e578063a22cb46514610391578063ae677aa3146103b1578063b88d4fde146103c4578063be9af536146103e4578063c3374315146103f7578063c6365c4c14610419578063c87b56dd14610439578063d1d8a06814610459578063e219fc751461046c578063e985e9c51461047f575b600080fd5b34801561015857600080fd5b5061016c610167366004612fcd565b61049f565b60405190151581526020015b60405180910390f35b34801561018d57600080fd5b506101966104f1565b6040516101789190613042565b3480156101af57600080fd5b506101b9600a5481565b604051908152602001610178565b3480156101d357600080fd5b506101e76101e2366004613055565b610583565b6040516001600160a01b039091168152602001610178565b34801561020b57600080fd5b5061021f61021a366004613097565b6105aa565b005b34801561022d57600080fd5b5061016c61023c3660046130c1565b600d6020526000908152604090205460ff1681565b34801561025d57600080fd5b506102666106c5565b60405161017891906130dc565b34801561027f57600080fd5b50600b546101b9565b34801561029457600080fd5b506102666109fa565b3480156102a957600080fd5b5061016c610d6d565b3480156102be57600080fd5b5061021f6102cd3660046131c8565b610d96565b3480156102de57600080fd5b5061021f6102ed3660046131c8565b610dc7565b3480156102fe57600080fd5b50610266610de2565b34801561031357600080fd5b506101e7610322366004613055565b611155565b34801561033357600080fd5b506101b96103423660046130c1565b61118a565b34801561035357600080fd5b5061035c611210565b60405161017891906132d0565b34801561037557600080fd5b506101966115cf565b6101b961038c36600461338e565b6115de565b34801561039d57600080fd5b5061021f6103ac366004613444565b611626565b61021f6103bf366004613055565b611635565b3480156103d057600080fd5b5061021f6103df366004613480565b6116ad565b61021f6103f2366004613055565b6116e5565b34801561040357600080fd5b5061040c61184a565b60405161017891906134fb565b34801561042557600080fd5b5061021f61043436600461355d565b611cbd565b34801561044557600080fd5b50610196610454366004613055565b612083565b61021f610467366004613055565b612194565b61021f61047a366004613651565b6122fd565b34801561048b57600080fd5b5061016c61049a366004613673565b6123f5565b60006001600160e01b031982166380ac58cd60e01b14806104d057506001600160e01b03198216635b5e139f60e01b145b806104eb57506301ffc9a760e01b6001600160e01b03198316145b92915050565b606060008054610500906136a6565b80601f016020809104026020016040519081016040528092919081815260200182805461052c906136a6565b80156105795780601f1061054e57610100808354040283529160200191610579565b820191906000526020600020905b81548152906001019060200180831161055c57829003601f168201915b5050505050905090565b600061058e82612423565b506000908152600460205260409020546001600160a01b031690565b60006105b582611155565b9050806001600160a01b0316836001600160a01b031614156106285760405162461bcd60e51b815260206004820152602160248201527f4552433732313a20617070726f76616c20746f2063757272656e74206f776e656044820152603960f91b60648201526084015b60405180910390fd5b336001600160a01b0382161480610644575061064481336123f5565b6106b65760405162461bcd60e51b815260206004820152603e60248201527f4552433732313a20617070726f76652063616c6c6572206973206e6f7420746f60448201527f6b656e206f776e6572206e6f7220617070726f76656420666f7220616c6c0000606482015260840161061f565b6106c0838361244b565b505050565b606060006106d260085490565b905060006106df60095490565b6008546106ec91906136f7565b9050600080826001600160401b03811115610709576107096132e3565b60405190808252806020026020018201604052801561074257816020015b61072f612df5565b8152602001906001900390816107275790505b50905060005b848110156109f15730600c600061076084600161370e565b81526020810191909152604001600020600201546001600160a01b031614156109df57600061079082600161370e565b6000818152600c60209081526040918290208251610100810184528154815260018201546001600160a01b039081169382019390935260028201549092169282019290925260038201546060820152600482015460ff161515608082015260058201805493945091929091839160a08401919061080c906136a6565b80601f0160208091040260200160405190810160405280929190818152602001828054610838906136a6565b80156108855780601f1061085a57610100808354040283529160200191610885565b820191906000526020600020905b81548152906001019060200180831161086857829003601f168201915b5050505050815260200160068201805461089e906136a6565b80601f01602080910402602001604051908101604052809291908181526020018280546108ca906136a6565b80156109175780601f106108ec57610100808354040283529160200191610917565b820191906000526020600020905b8154815290600101906020018083116108fa57829003601f168201915b50505050508152602001600782018054610930906136a6565b80601f016020809104026020016040519081016040528092919081815260200182805461095c906136a6565b80156109a95780601f1061097e576101008083540402835291602001916109a9565b820191906000526020600020905b81548152906001019060200180831161098c57829003601f168201915b5050505050815250508486815181106109c4576109c4613726565b60209081029190910101526109da60018661370e565b945050505b806109e98161373c565b915050610748565b50949350505050565b60606000610a0760085490565b905060008060005b83811015610a6a5733600c6000610a2784600161370e565b81526020810191909152604001600020600201546001600160a01b03161415610a5857610a5560018461370e565b92505b80610a628161373c565b915050610a0f565b506000826001600160401b03811115610a8557610a856132e3565b604051908082528060200260200182016040528015610abe57816020015b610aab612df5565b815260200190600190039081610aa35790505b50905060005b848110156109f15733600c6000610adc84600161370e565b81526020810191909152604001600020600201546001600160a01b03161415610d5b576000610b0c82600161370e565b6000818152600c60209081526040918290208251610100810184528154815260018201546001600160a01b039081169382019390935260028201549092169282019290925260038201546060820152600482015460ff161515608082015260058201805493945091929091839160a084019190610b88906136a6565b80601f0160208091040260200160405190810160405280929190818152602001828054610bb4906136a6565b8015610c015780601f10610bd657610100808354040283529160200191610c01565b820191906000526020600020905b815481529060010190602001808311610be457829003601f168201915b50505050508152602001600682018054610c1a906136a6565b80601f0160208091040260200160405190810160405280929190818152602001828054610c46906136a6565b8015610c935780601f10610c6857610100808354040283529160200191610c93565b820191906000526020600020905b815481529060010190602001808311610c7657829003601f168201915b50505050508152602001600782018054610cac906136a6565b80601f0160208091040260200160405190810160405280929190818152602001828054610cd8906136a6565b8015610d255780601f10610cfa57610100808354040283529160200191610d25565b820191906000526020600020905b815481529060010190602001808311610d0857829003601f168201915b505050505081525050848681518110610d4057610d40613726565b6020908102919091010152610d5660018661370e565b945050505b80610d658161373c565b915050610ac4565b336000908152600d602052604081205460ff16151560011415610d905750600190565b50600090565b610da033826124b9565b610dbc5760405162461bcd60e51b815260040161061f90613757565b6106c0838383612517565b6106c0838383604051806020016040528060008152506116ad565b60606000610def60085490565b905060008060005b83811015610e525733600c6000610e0f84600161370e565b81526020810191909152604001600020600101546001600160a01b03161415610e4057610e3d60018461370e565b92505b80610e4a8161373c565b915050610df7565b506000826001600160401b03811115610e6d57610e6d6132e3565b604051908082528060200260200182016040528015610ea657816020015b610e93612df5565b815260200190600190039081610e8b5790505b50905060005b848110156109f15733600c6000610ec484600161370e565b81526020810191909152604001600020600101546001600160a01b03161415611143576000610ef482600161370e565b6000818152600c60209081526040918290208251610100810184528154815260018201546001600160a01b039081169382019390935260028201549092169282019290925260038201546060820152600482015460ff161515608082015260058201805493945091929091839160a084019190610f70906136a6565b80601f0160208091040260200160405190810160405280929190818152602001828054610f9c906136a6565b8015610fe95780601f10610fbe57610100808354040283529160200191610fe9565b820191906000526020600020905b815481529060010190602001808311610fcc57829003601f168201915b50505050508152602001600682018054611002906136a6565b80601f016020809104026020016040519081016040528092919081815260200182805461102e906136a6565b801561107b5780601f106110505761010080835404028352916020019161107b565b820191906000526020600020905b81548152906001019060200180831161105e57829003601f168201915b50505050508152602001600782018054611094906136a6565b80601f01602080910402602001604051908101604052809291908181526020018280546110c0906136a6565b801561110d5780601f106110e25761010080835404028352916020019161110d565b820191906000526020600020905b8154815290600101906020018083116110f057829003601f168201915b50505050508152505084868151811061112857611128613726565b602090810291909101015261113e60018661370e565b945050505b8061114d8161373c565b915050610eac565b6000818152600260205260408120546001600160a01b0316806104eb5760405162461bcd60e51b815260040161061f906137a5565b60006001600160a01b0382166111f45760405162461bcd60e51b815260206004820152602960248201527f4552433732313a2061646472657373207a65726f206973206e6f7420612076616044820152683634b21037bbb732b960b91b606482015260840161061f565b506001600160a01b031660009081526003602052604090205490565b611218612e4e565b336000908152600f60209081526040918290208251610120810184528154815260018201546001600160a01b0316928101929092526002810180549293919291840191611264906136a6565b80601f0160208091040260200160405190810160405280929190818152602001828054611290906136a6565b80156112dd5780601f106112b2576101008083540402835291602001916112dd565b820191906000526020600020905b8154815290600101906020018083116112c057829003601f168201915b505050505081526020016003820180546112f6906136a6565b80601f0160208091040260200160405190810160405280929190818152602001828054611322906136a6565b801561136f5780601f106113445761010080835404028352916020019161136f565b820191906000526020600020905b81548152906001019060200180831161135257829003601f168201915b50505050508152602001600482018054611388906136a6565b80601f01602080910402602001604051908101604052809291908181526020018280546113b4906136a6565b80156114015780601f106113d657610100808354040283529160200191611401565b820191906000526020600020905b8154815290600101906020018083116113e457829003601f168201915b5050505050815260200160058201805461141a906136a6565b80601f0160208091040260200160405190810160405280929190818152602001828054611446906136a6565b80156114935780601f1061146857610100808354040283529160200191611493565b820191906000526020600020905b81548152906001019060200180831161147657829003601f168201915b505050505081526020016006820180546114ac906136a6565b80601f01602080910402602001604051908101604052809291908181526020018280546114d8906136a6565b80156115255780601f106114fa57610100808354040283529160200191611525565b820191906000526020600020905b81548152906001019060200180831161150857829003601f168201915b5050505050815260200160078201805461153e906136a6565b80601f016020809104026020016040519081016040528092919081815260200182805461156a906136a6565b80156115b75780601f1061158c576101008083540402835291602001916115b7565b820191906000526020600020905b81548152906001019060200180831161159a57829003601f168201915b50505050508152602001600882015481525050905090565b606060018054610500906136a6565b60006115ee600880546001019055565b60006115f960085490565b905061160533826126a1565b61160f81886127c1565b61161c818787878761284c565b9695505050505050565b611631338383612a07565b5050565b6007546001600160a01b031633146116a85760405162461bcd60e51b815260206004820152603060248201527f4f6e6c79206d61726b6574706c616365206f776e65722063616e20757064617460448201526f32903634b9ba34b73390383934b1b29760811b606482015260840161061f565b600b55565b6116b733836124b9565b6116d35760405162461bcd60e51b815260040161061f90613757565b6116df84848484612ad2565b50505050565b6000818152600c6020526040902060038101546001909101546001600160a01b031634821461177e576040805162461bcd60e51b81526020600482015260248101919091527f506c65617365207375626d6974207468652061736b696e67207072696365206960448201527f6e206f7264657220746f20636f6d706c65746520746865207075726368617365606482015260840161061f565b6000838152600c602052604090206002810180546001600160a01b0319908116331790915560048201805460ff19166001908117909155909101805490911690556117cd600980546001019055565b6117d8303385612517565b600754600b546040516001600160a01b039092169181156108fc0291906000818181858888f19350505050158015611814573d6000803e3d6000fd5b506040516001600160a01b038216903480156108fc02916000818181858888f193505050501580156116df573d6000803e3d6000fd5b600a54606090600080826001600160401b0381111561186b5761186b6132e3565b6040519080825280602002602001820160405280156118a457816020015b611891612e4e565b8152602001906001900390816118895790505b50905060005b83811015611cb55760006118bf82600161370e565b6000818152600e60209081526040918290208251610120810184528154815260018201546001600160a01b0316928101929092526002810180549495509093919284929084019190611910906136a6565b80601f016020809104026020016040519081016040528092919081815260200182805461193c906136a6565b80156119895780601f1061195e57610100808354040283529160200191611989565b820191906000526020600020905b81548152906001019060200180831161196c57829003601f168201915b505050505081526020016003820180546119a2906136a6565b80601f01602080910402602001604051908101604052809291908181526020018280546119ce906136a6565b8015611a1b5780601f106119f057610100808354040283529160200191611a1b565b820191906000526020600020905b8154815290600101906020018083116119fe57829003601f168201915b50505050508152602001600482018054611a34906136a6565b80601f0160208091040260200160405190810160405280929190818152602001828054611a60906136a6565b8015611aad5780601f10611a8257610100808354040283529160200191611aad565b820191906000526020600020905b815481529060010190602001808311611a9057829003601f168201915b50505050508152602001600582018054611ac6906136a6565b80601f0160208091040260200160405190810160405280929190818152602001828054611af2906136a6565b8015611b3f5780601f10611b1457610100808354040283529160200191611b3f565b820191906000526020600020905b815481529060010190602001808311611b2257829003601f168201915b50505050508152602001600682018054611b58906136a6565b80601f0160208091040260200160405190810160405280929190818152602001828054611b84906136a6565b8015611bd15780601f10611ba657610100808354040283529160200191611bd1565b820191906000526020600020905b815481529060010190602001808311611bb457829003601f168201915b50505050508152602001600782018054611bea906136a6565b80601f0160208091040260200160405190810160405280929190818152602001828054611c16906136a6565b8015611c635780601f10611c3857610100808354040283529160200191611c63565b820191906000526020600020905b815481529060010190602001808311611c4657829003601f168201915b50505050508152602001600882015481525050848681518110611c8857611c88613726565b6020908102919091010152611c9e60018661370e565b945050508080611cad9061373c565b9150506118aa565b509392505050565b336000908152600d602052604090205460ff1661207b57600a8054906000611ce48361373c565b9091555050600a546000818152600e6020908152604080832033808552600f8452919093209383556001830180546001600160a01b03191690911790558851919291611d38916002850191908b0190612ea3565b508651611d4e90600384019060208a0190612ea3565b508551611d649060048401906020890190612ea3565b508451611d7a9060058401906020880190612ea3565b508351611d909060068401906020870190612ea3565b508251611da69060078401906020860190612ea3565b50600060088301819055338152600d60209081526040909120805460ff19166001179055600a5482558851611de3916002840191908b0190612ea3565b508651611df990600383019060208a0190612ea3565b508551611e0f9060048301906020890190612ea3565b5060018181018054336001600160a01b0319918216811783556000908152600f6020526040902084548155915492820180546001600160a01b0390941693909116929092179091556002808301805484939283019190611e6e906136a6565b611e79929190612f27565b506003820181600301908054611e8e906136a6565b611e99929190612f27565b506004820181600401908054611eae906136a6565b611eb9929190612f27565b506005820181600501908054611ece906136a6565b611ed9929190612f27565b506006820181600601908054611eee906136a6565b611ef9929190612f27565b506007820181600701908054611f0e906136a6565b611f19929190612f27565b50600891820154910155600a546000908152600e602052604090208254815560018084015490820180546001600160a01b0319166001600160a01b039092169190911790556002808401805485939283019190611f75906136a6565b611f80929190612f27565b506003820181600301908054611f95906136a6565b611fa0929190612f27565b506004820181600401908054611fb5906136a6565b611fc0929190612f27565b506005820181600501908054611fd5906136a6565b611fe0929190612f27565b506006820181600601908054611ff5906136a6565b612000929190612f27565b506007820181600701908054612015906136a6565b612020929190612f27565b50600891820154908201558254908301546040517f89f1c074f6874cb060b9a3b0b1696e9399f45c7a3d370d3ea63fa76bf1f4e5f39261207092909133918d918d918d918d918d918d91906137d7565b60405180910390a150505b505050505050565b606061208e82612423565b600082815260066020526040812080546120a7906136a6565b80601f01602080910402602001604051908101604052809291908181526020018280546120d3906136a6565b80156121205780601f106120f557610100808354040283529160200191612120565b820191906000526020600020905b81548152906001019060200180831161210357829003601f168201915b50505050509050600061213e60408051602081019091526000815290565b9050805160001415612151575092915050565b81511561218357808260405160200161216b92919061387e565b60405160208183030381529060405292505050919050565b61218c84612b05565b949350505050565b6000818152600e60205260408082206001810154915190926001600160a01b03909216913480156108fc02929091818181858888f193505050501580156121df573d6000803e3d6000fd5b503481600801546121f0919061370e565b60088201556000828152600e602052604090208154815560018083015490820180546001600160a01b0319166001600160a01b039092169190911790556002808301805484939283019190612244906136a6565b61224f929190612f27565b506003820181600301908054612264906136a6565b61226f929190612f27565b506004820181600401908054612284906136a6565b61228f929190612f27565b5060058201816005019080546122a4906136a6565b6122af929190612f27565b5060068201816006019080546122c4906136a6565b6122cf929190612f27565b5060078201816007019080546122e4906136a6565b6122ef929190612f27565b506008918201549101555050565b6000828152600c60205260409020600201546001600160a01b031633146123795760405162461bcd60e51b815260206004820152602a60248201527f4f6e6c79206974656d206f776e65722063616e20706572666f726d20746869736044820152691037b832b930ba34b7b760b11b606482015260840161061f565b600b54341461239a5760405162461bcd60e51b815260040161061f906138ad565b6000828152600c6020526040902060048101805460ff19169055600381018290556001810180546001600160a01b0319908116331790915560029091018054909116301790556123ea6009612b79565b611631333084612517565b6001600160a01b03918216600090815260056020908152604080832093909416825291909152205460ff1690565b61242c81612bce565b6124485760405162461bcd60e51b815260040161061f906137a5565b50565b600081815260046020526040902080546001600160a01b0319166001600160a01b038416908117909155819061248082611155565b6001600160a01b03167f8c5be1e5ebec7d5bd14f71427d1e84f3dd0314c0f7b2291e5b200ac8c7c3b92560405160405180910390a45050565b6000806124c583611155565b9050806001600160a01b0316846001600160a01b031614806124ec57506124ec81856123f5565b8061218c5750836001600160a01b031661250584610583565b6001600160a01b031614949350505050565b826001600160a01b031661252a82611155565b6001600160a01b03161461258e5760405162461bcd60e51b815260206004820152602560248201527f4552433732313a207472616e736665722066726f6d20696e636f72726563742060448201526437bbb732b960d91b606482015260840161061f565b6001600160a01b0382166125f05760405162461bcd60e51b8152602060048201526024808201527f4552433732313a207472616e7366657220746f20746865207a65726f206164646044820152637265737360e01b606482015260840161061f565b6125fb60008261244b565b6001600160a01b03831660009081526003602052604081208054600192906126249084906136f7565b90915550506001600160a01b038216600090815260036020526040812080546001929061265290849061370e565b909155505060008181526002602052604080822080546001600160a01b0319166001600160a01b038681169182179092559151849391871691600080516020613a4183398151915291a4505050565b6001600160a01b0382166126f75760405162461bcd60e51b815260206004820181905260248201527f4552433732313a206d696e7420746f20746865207a65726f2061646472657373604482015260640161061f565b61270081612bce565b1561274c5760405162461bcd60e51b815260206004820152601c60248201527b115490cdcc8c4e881d1bdad95b88185b1c9958591e481b5a5b9d195960221b604482015260640161061f565b6001600160a01b038216600090815260036020526040812080546001929061277590849061370e565b909155505060008181526002602052604080822080546001600160a01b0319166001600160a01b0386169081179091559051839290600080516020613a41833981519152908290a45050565b6127ca82612bce565b61282d5760405162461bcd60e51b815260206004820152602e60248201527f45524337323155524953746f726167653a2055524920736574206f66206e6f6e60448201526d32bc34b9ba32b73a103a37b5b2b760911b606482015260840161061f565b600082815260066020908152604090912082516106c092840190612ea3565b6000841161289b5760405162461bcd60e51b815260206004820152601c60248201527b5072696365206d757374206265206174206c6561737420312077656960201b604482015260640161061f565b600b5434146128bc5760405162461bcd60e51b815260040161061f906138ad565b6040805161010081018252868152336020808301918252308385019081526060840189815260006080860181815260a087018b815260c088018b905260e088018a90528d8352600c8652979091208651815594516001860180546001600160a01b03199081166001600160a01b039384161790915593516002870180549095169116179092555160038401555160048301805460ff191691151591909117905592518051929391926129749260058501920190612ea3565b5060c08201518051612990916006840191602090910190612ea3565b5060e082015180516129ac916007840191602090910190612ea3565b509050506129bb333087612517565b847f92d5fdcbed7ff2adc67c1a3e81b1f62968651ced121e6ea00b2a9edbf1882d6033308760008888886040516129f897969594939291906138f1565b60405180910390a25050505050565b816001600160a01b0316836001600160a01b03161415612a655760405162461bcd60e51b815260206004820152601960248201527822a9219b99189d1030b8383937bb32903a379031b0b63632b960391b604482015260640161061f565b6001600160a01b03838116600081815260056020908152604080832094871680845294825291829020805460ff191686151590811790915591519182527f17307eab39ab6107e8899845ad3d59bd9653f200f220920489ca2b5937696c31910160405180910390a3505050565b612add848484612517565b612ae984848484612beb565b6116df5760405162461bcd60e51b815260040161061f90613960565b6060612b1082612423565b6000612b2760408051602081019091526000815290565b90506000815111612b475760405180602001604052806000815250612b72565b80612b5184612cf8565b604051602001612b6292919061387e565b6040516020818303038152906040525b9392505050565b805480612bc65760405162461bcd60e51b815260206004820152601b60248201527a436f756e7465723a2064656372656d656e74206f766572666c6f7760281b604482015260640161061f565b600019019055565b6000908152600260205260409020546001600160a01b0316151590565b60006001600160a01b0384163b15612ced57604051630a85bd0160e11b81526001600160a01b0385169063150b7a0290612c2f9033908990889088906004016139b2565b602060405180830381600087803b158015612c4957600080fd5b505af1925050508015612c79575060408051601f3d908101601f19168201909252612c76918101906139e5565b60015b612cd3573d808015612ca7576040519150601f19603f3d011682016040523d82523d6000602084013e612cac565b606091505b508051612ccb5760405162461bcd60e51b815260040161061f90613960565b805181602001fd5b6001600160e01b031916630a85bd0160e11b14905061218c565b506001949350505050565b606081612d1c5750506040805180820190915260018152600360fc1b602082015290565b8160005b8115612d465780612d308161373c565b9150612d3f9050600a83613a18565b9150612d20565b6000816001600160401b03811115612d6057612d606132e3565b6040519080825280601f01601f191660200182016040528015612d8a576020820181803683370190505b5090505b841561218c57612d9f6001836136f7565b9150612dac600a86613a2c565b612db790603061370e565b60f81b818381518110612dcc57612dcc613726565b60200101906001600160f81b031916908160001a905350612dee600a86613a18565b9450612d8e565b6040518061010001604052806000815260200160006001600160a01b0316815260200160006001600160a01b03168152602001600081526020016000151581526020016060815260200160608152602001606081525090565b6040518061012001604052806000815260200160006001600160a01b03168152602001606081526020016060815260200160608152602001606081526020016060815260200160608152602001600081525090565b828054612eaf906136a6565b90600052602060002090601f016020900481019282612ed15760008555612f17565b82601f10612eea57805160ff1916838001178555612f17565b82800160010185558215612f17579182015b82811115612f17578251825591602001919060010190612efc565b50612f23929150612fa2565b5090565b828054612f33906136a6565b90600052602060002090601f016020900481019282612f555760008555612f17565b82601f10612f665780548555612f17565b82800160010185558215612f1757600052602060002091601f016020900482015b82811115612f17578254825591600101919060010190612f87565b5b80821115612f235760008155600101612fa3565b6001600160e01b03198116811461244857600080fd5b600060208284031215612fdf57600080fd5b8135612b7281612fb7565b60005b83811015613005578181015183820152602001612fed565b838111156116df5750506000910152565b6000815180845261302e816020860160208601612fea565b601f01601f19169290920160200192915050565b602081526000612b726020830184613016565b60006020828403121561306757600080fd5b5035919050565b6001600160a01b03169052565b80356001600160a01b038116811461309257600080fd5b919050565b600080604083850312156130aa57600080fd5b6130b38361307b565b946020939093013593505050565b6000602082840312156130d357600080fd5b612b728261307b565b60006020808301818452808551808352604092508286019150828160051b87010184880160005b838110156131ba57603f198984030185528151610100815185528882015161312d8a87018261306e565b508782015161313e8987018261306e565b506060828101519086015260808083015115159086015260a08083015181870183905261316d83880182613016565b9250505060c080830151868303828801526131888382613016565b9250505060e080830151925085820381870152506131a68183613016565b968901969450505090860190600101613103565b509098975050505050505050565b6000806000606084860312156131dd57600080fd5b6131e68461307b565b92506131f46020850161307b565b9150604084013590509250925092565b600061012082518452602083015161321f602086018261306e565b50604083015181604086015261323782860182613016565b915050606083015184820360608601526132518282613016565b9150506080830151848203608086015261326b8282613016565b91505060a083015184820360a08601526132858282613016565b91505060c083015184820360c086015261329f8282613016565b91505060e083015184820360e08601526132b98282613016565b610100948501519590940194909452509092915050565b602081526000612b726020830184613204565b634e487b7160e01b600052604160045260246000fd5b60006001600160401b0380841115613313576133136132e3565b604051601f8501601f19908116603f0116810190828211818310171561333b5761333b6132e3565b8160405280935085815286868601111561335457600080fd5b858560208301376000602087830101525050509392505050565b600082601f83011261337f57600080fd5b612b72838335602085016132f9565b600080600080600060a086880312156133a657600080fd5b85356001600160401b03808211156133bd57600080fd5b6133c989838a0161336e565b96506020880135955060408801359150808211156133e657600080fd5b6133f289838a0161336e565b9450606088013591508082111561340857600080fd5b61341489838a0161336e565b9350608088013591508082111561342a57600080fd5b506134378882890161336e565b9150509295509295909350565b6000806040838503121561345757600080fd5b6134608361307b565b91506020830135801515811461347557600080fd5b809150509250929050565b6000806000806080858703121561349657600080fd5b61349f8561307b565b93506134ad6020860161307b565b92506040850135915060608501356001600160401b038111156134cf57600080fd5b8501601f810187136134e057600080fd5b6134ef878235602084016132f9565b91505092959194509250565b6000602080830181845280855180835260408601915060408160051b870101925083870160005b8281101561355057603f1988860301845261353e858351613204565b94509285019290850190600101613522565b5092979650505050505050565b60008060008060008060c0878903121561357657600080fd5b86356001600160401b038082111561358d57600080fd5b6135998a838b0161336e565b975060208901359150808211156135af57600080fd5b6135bb8a838b0161336e565b965060408901359150808211156135d157600080fd5b6135dd8a838b0161336e565b955060608901359150808211156135f357600080fd5b6135ff8a838b0161336e565b9450608089013591508082111561361557600080fd5b6136218a838b0161336e565b935060a089013591508082111561363757600080fd5b5061364489828a0161336e565b9150509295509295509295565b6000806040838503121561366457600080fd5b50508035926020909101359150565b6000806040838503121561368657600080fd5b61368f8361307b565b915061369d6020840161307b565b90509250929050565b600181811c908216806136ba57607f821691505b602082108114156136db57634e487b7160e01b600052602260045260246000fd5b50919050565b634e487b7160e01b600052601160045260246000fd5b600082821015613709576137096136e1565b500390565b60008219821115613721576137216136e1565b500190565b634e487b7160e01b600052603260045260246000fd5b6000600019821415613750576137506136e1565b5060010190565b6020808252602e908201527f4552433732313a2063616c6c6572206973206e6f7420746f6b656e206f776e6560408201526d1c881b9bdc88185c1c1c9bdd995960921b606082015260800190565b602080825260189082015277115490cdcc8c4e881a5b9d985b1a59081d1bdad95b88125160421b604082015260600190565b8981526001600160a01b0389166020820152610120604082018190526000906138028382018b613016565b90508281036060840152613816818a613016565b9050828103608084015261382a8189613016565b905082810360a084015261383e8188613016565b905082810360c08401526138528187613016565b905082810360e08401526138668186613016565b915050826101008301529a9950505050505050505050565b60008351613890818460208801612fea565b8351908301906138a4818360208801612fea565b01949350505050565b60208082526024908201527f5072696365206d75737420626520657175616c20746f206c697374696e6720706040820152637269636560e01b606082015260800190565b6001600160a01b0388811682528716602082015260408101869052841515606082015260e06080820181905260009061392c90830186613016565b82810360a084015261393e8186613016565b905082810360c08401526139528185613016565b9a9950505050505050505050565b60208082526032908201527f4552433732313a207472616e7366657220746f206e6f6e20455243373231526560408201527131b2b4bb32b91034b6b83632b6b2b73a32b960711b606082015260800190565b6001600160a01b038581168252841660208201526040810183905260806060820181905260009061161c90830184613016565b6000602082840312156139f757600080fd5b8151612b7281612fb7565b634e487b7160e01b600052601260045260246000fd5b600082613a2757613a27613a02565b500490565b600082613a3b57613a3b613a02565b50069056feddf252ad1be2c89b69c2b068fc378daa952ba7f163c4a11628f55a4df523b3efa26469706673582212207263dc3628e00079e9f13ee4ffeab650ae14cddf0cbcf8e8f2594f41e2e0748e64736f6c63430008090033",
  "linkReferences": {},
  "deployedLinkReferences": {}
}