{
  "_format": "hh-sol-artifact-1",
  "contractName": "SecureMate",
  "sourceName": "contracts/Dstore.sol",
  "abi": [
    {
      "inputs": [],
      "stateMutability": "nonpayable",
      "type": "constructor"
    },
    {
      "anonymous": false,
      "inputs": [
        {
          "indexed": true,
          "internalType": "address",
          "name": "owner",
          "type": "address"
        },
        {
          "indexed": true,
          "internalType": "address",
          "name": "approved",
          "type": "address"
        },
        {
          "indexed": true,
          "internalType": "uint256",
          "name": "tokenId",
          "type": "uint256"
        }
      ],
      "name": "Approval",
      "type": "event"
    },
    {
      "anonymous": false,
      "inputs": [
        {
          "indexed": true,
          "internalType": "address",
          "name": "owner",
          "type": "address"
        },
        {
          "indexed": true,
          "internalType": "address",
          "name": "operator",
          "type": "address"
        },
        {
          "indexed": false,
          "internalType": "bool",
          "name": "approved",
          "type": "bool"
        }
      ],
      "name": "ApprovalForAll",
      "type": "event"
    },
    {
      "anonymous": false,
      "inputs": [
        {
          "indexed": true,
          "internalType": "uint256",
          "name": "tokenId",
          "type": "uint256"
        },
        {
          "indexed": false,
          "internalType": "address",
          "name": "seller",
          "type": "address"
        },
        {
          "indexed": false,
          "internalType": "address",
          "name": "owner",
          "type": "address"
        },
        {
          "indexed": false,
          "internalType": "uint256",
          "name": "price",
          "type": "uint256"
        },
        {
          "indexed": false,
          "internalType": "bool",
          "name": "sold",
          "type": "bool"
        },
        {
          "indexed": false,
          "internalType": "string",
          "name": "name",
          "type": "string"
        },
        {
          "indexed": false,
          "internalType": "string",
          "name": "description",
          "type": "string"
        },
        {
          "indexed": false,
          "internalType": "string",
          "name": "image",
          "type": "string"
        }
      ],
      "name": "MarketItemCreated",
      "type": "event"
    },
    {
      "anonymous": false,
      "inputs": [
        {
          "indexed": true,
          "internalType": "address",
          "name": "from",
          "type": "address"
        },
        {
          "indexed": true,
          "internalType": "address",
          "name": "to",
          "type": "address"
        },
        {
          "indexed": true,
          "internalType": "uint256",
          "name": "tokenId",
          "type": "uint256"
        }
      ],
      "name": "Transfer",
      "type": "event"
    },
    {
      "anonymous": false,
      "inputs": [
        {
          "indexed": false,
          "internalType": "uint256",
          "name": "id",
          "type": "uint256"
        },
        {
          "indexed": false,
          "internalType": "address payable",
          "name": "_address",
          "type": "address"
        },
        {
          "indexed": false,
          "internalType": "string",
          "name": "image",
          "type": "string"
        },
        {
          "indexed": false,
          "internalType": "string",
          "name": "name",
          "type": "string"
        },
        {
          "indexed": false,
          "internalType": "string",
          "name": "profile",
          "type": "string"
        },
        {
          "indexed": false,
          "internalType": "string",
          "name": "gender",
          "type": "string"
        },
        {
          "indexed": false,
          "internalType": "string",
          "name": "year",
          "type": "string"
        },
        {
          "indexed": false,
          "internalType": "string",
          "name": "country",
          "type": "string"
        },
        {
          "indexed": false,
          "internalType": "uint256",
          "name": "balance",
          "type": "uint256"
        }
      ],
      "name": "UserCreated",
      "type": "event"
    },
    {
      "inputs": [
        {
          "internalType": "address",
          "name": "to",
          "type": "address"
        },
        {
          "internalType": "uint256",
          "name": "tokenId",
          "type": "uint256"
        }
      ],
      "name": "approve",
      "outputs": [],
      "stateMutability": "nonpayable",
      "type": "function"
    },
    {
      "inputs": [
        {
          "internalType": "address",
          "name": "owner",
          "type": "address"
        }
      ],
      "name": "balanceOf",
      "outputs": [
        {
          "internalType": "uint256",
          "name": "",
          "type": "uint256"
        }
      ],
      "stateMutability": "view",
      "type": "function"
    },
    {
      "inputs": [
        {
          "internalType": "uint256",
          "name": "tokenId",
          "type": "uint256"
        }
      ],
      "name": "createMarketSale",
      "outputs": [],
      "stateMutability": "payable",
      "type": "function"
    },
    {
      "inputs": [
        {
          "internalType": "string",
          "name": "_image",
          "type": "string"
        },
        {
          "internalType": "string",
          "name": "_name",
          "type": "string"
        },
        {
          "internalType": "string",
          "name": "_profile",
          "type": "string"
        },
        {
          "internalType": "string",
          "name": "_gender",
          "type": "string"
        },
        {
          "internalType": "string",
          "name": "_year",
          "type": "string"
        },
        {
          "internalType": "string",
          "name": "_country",
          "type": "string"
        }
      ],
      "name": "createProfile",
      "outputs": [],
      "stateMutability": "nonpayable",
      "type": "function"
    },
    {
      "inputs": [
        {
          "internalType": "string",
          "name": "tokenURI",
          "type": "string"
        },
        {
          "internalType": "uint256",
          "name": "price",
          "type": "uint256"
        },
        {
          "internalType": "string",
          "name": "_name",
          "type": "string"
        },
        {
          "internalType": "string",
          "name": "_description",
          "type": "string"
        },
        {
          "internalType": "string",
          "name": "_image",
          "type": "string"
        }
      ],
      "name": "createToken",
      "outputs": [
        {
          "internalType": "uint256",
          "name": "",
          "type": "uint256"
        }
      ],
      "stateMutability": "payable",
      "type": "function"
    },
    {
      "inputs": [],
      "name": "fetchAllUsers",
      "outputs": [
        {
          "components": [
            {
              "internalType": "uint256",
              "name": "id",
              "type": "uint256"
            },
            {
              "internalType": "address payable",
              "name": "_address",
              "type": "address"
            },
            {
              "internalType": "string",
              "name": "image",
              "type": "string"
            },
            {
              "internalType": "string",
              "name": "name",
              "type": "string"
            },
            {
              "internalType": "string",
              "name": "profile",
              "type": "string"
            },
            {
              "internalType": "string",
              "name": "gender",
              "type": "string"
            },
            {
              "internalType": "string",
              "name": "year",
              "type": "string"
            },
            {
              "internalType": "string",
              "name": "country",
              "type": "string"
            },
            {
              "internalType": "uint256",
              "name": "balance",
              "type": "uint256"
            }
          ],
          "internalType": "struct SecureMate.User[]",
          "name": "",
          "type": "tuple[]"
        }
      ],
      "stateMutability": "view",
      "type": "function"
    },
    {
      "inputs": [],
      "name": "fetchItemsListed",
      "outputs": [
        {
          "components": [
            {
              "internalType": "uint256",
              "name": "tokenId",
              "type": "uint256"
            },
            {
              "internalType": "address payable",
              "name": "seller",
              "type": "address"
            },
            {
              "internalType": "address payable",
              "name": "owner",
              "type": "address"
            },
            {
              "internalType": "uint256",
              "name": "price",
              "type": "uint256"
            },
            {
              "internalType": "bool",
              "name": "sold",
              "type": "bool"
            },
            {
              "internalType": "string",
              "name": "name",
              "type": "string"
            },
            {
              "internalType": "string",
              "name": "description",
              "type": "string"
            },
            {
              "internalType": "string",
              "name": "image",
              "type": "string"
            }
          ],
          "internalType": "struct SecureMate.MarketItem[]",
          "name": "",
          "type": "tuple[]"
        }
      ],
      "stateMutability": "view",
      "type": "function"
    },
    {
      "inputs": [],
      "name": "fetchMarketItems",
      "outputs": [
        {
          "components": [
            {
              "internalType": "uint256",
              "name": "tokenId",
              "type": "uint256"
            },
            {
              "internalType": "address payable",
              "name": "seller",
              "type": "address"
            },
            {
              "internalType": "address payable",
              "name": "owner",
              "type": "address"
            },
            {
              "internalType": "uint256",
              "name": "price",
              "type": "uint256"
            },
            {
              "internalType": "bool",
              "name": "sold",
              "type": "bool"
            },
            {
              "internalType": "string",
              "name": "name",
              "type": "string"
            },
            {
              "internalType": "string",
              "name": "description",
              "type": "string"
            },
            {
              "internalType": "string",
              "name": "image",
              "type": "string"
            }
          ],
          "internalType": "struct SecureMate.MarketItem[]",
          "name": "",
          "type": "tuple[]"
        }
      ],
      "stateMutability": "view",
      "type": "function"
    },
    {
      "inputs": [],
      "name": "fetchMyNFTs",
      "outputs": [
        {
          "components": [
            {
              "internalType": "uint256",
              "name": "tokenId",
              "type": "uint256"
            },
            {
              "internalType": "address payable",
              "name": "seller",
              "type": "address"
            },
            {
              "internalType": "address payable",
              "name": "owner",
              "type": "address"
            },
            {
              "internalType": "uint256",
              "name": "price",
              "type": "uint256"
            },
            {
              "internalType": "bool",
              "name": "sold",
              "type": "bool"
            },
            {
              "internalType": "string",
              "name": "name",
              "type": "string"
            },
            {
              "internalType": "string",
              "name": "description",
              "type": "string"
            },
            {
              "internalType": "string",
              "name": "image",
              "type": "string"
            }
          ],
          "internalType": "struct SecureMate.MarketItem[]",
          "name": "",
          "type": "tuple[]"
        }
      ],
      "stateMutability": "view",
      "type": "function"
    },
    {
      "inputs": [
        {
          "internalType": "uint256",
          "name": "tokenId",
          "type": "uint256"
        }
      ],
      "name": "getApproved",
      "outputs": [
        {
          "internalType": "address",
          "name": "",
          "type": "address"
        }
      ],
      "stateMutability": "view",
      "type": "function"
    },
    {
      "inputs": [],
      "name": "getListingPrice",
      "outputs": [
        {
          "internalType": "uint256",
          "name": "",
          "type": "uint256"
        }
      ],
      "stateMutability": "view",
      "type": "function"
    },
    {
      "inputs": [],
      "name": "getSingleUser",
      "outputs": [
        {
          "components": [
            {
              "internalType": "uint256",
              "name": "id",
              "type": "uint256"
            },
            {
              "internalType": "address payable",
              "name": "_address",
              "type": "address"
            },
            {
              "internalType": "string",
              "name": "image",
              "type": "string"
            },
            {
              "internalType": "string",
              "name": "name",
              "type": "string"
            },
            {
              "internalType": "string",
              "name": "profile",
              "type": "string"
            },
            {
              "internalType": "string",
              "name": "gender",
              "type": "string"
            },
            {
              "internalType": "string",
              "name": "year",
              "type": "string"
            },
            {
              "internalType": "string",
              "name": "country",
              "type": "string"
            },
            {
              "internalType": "uint256",
              "name": "balance",
              "type": "uint256"
            }
          ],
          "internalType": "struct SecureMate.User",
          "name": "",
          "type": "tuple"
        }
      ],
      "stateMutability": "view",
      "type": "function"
    },
    {
      "inputs": [
        {
          "internalType": "address",
          "name": "owner",
          "type": "address"
        },
        {
          "internalType": "address",
          "name": "operator",
          "type": "address"
        }
      ],
      "name": "isApprovedForAll",
      "outputs": [
        {
          "internalType": "bool",
          "name": "",
          "type": "bool"
        }
      ],
      "stateMutability": "view",
      "type": "function"
    },
    {
      "inputs": [],
      "name": "isRegistered",
      "outputs": [
        {
          "internalType": "bool",
          "name": "",
          "type": "bool"
        }
      ],
      "stateMutability": "view",
      "type": "function"
    },
    {
      "inputs": [],
      "name": "name",
      "outputs": [
        {
          "internalType": "string",
          "name": "",
          "type": "string"
        }
      ],
      "stateMutability": "view",
      "type": "function"
    },
    {
      "inputs": [
        {
          "internalType": "uint256",
          "name": "tokenId",
          "type": "uint256"
        }
      ],
      "name": "ownerOf",
      "outputs": [
        {
          "internalType": "address",
          "name": "",
          "type": "address"
        }
      ],
      "stateMutability": "view",
      "type": "function"
    },
    {
      "inputs": [
        {
          "internalType": "address",
          "name": "",
          "type": "address"
        }
      ],
      "name": "registeredUsers",
      "outputs": [
        {
          "internalType": "bool",
          "name": "",
          "type": "bool"
        }
      ],
      "stateMutability": "view",
      "type": "function"
    },
    {
      "inputs": [
        {
          "internalType": "uint256",
          "name": "tokenId",
          "type": "uint256"
        },
        {
          "internalType": "uint256",
          "name": "price",
          "type": "uint256"
        }
      ],
      "name": "resellToken",
      "outputs": [],
      "stateMutability": "payable",
      "type": "function"
    },
    {
      "inputs": [
        {
          "internalType": "address",
          "name": "from",
          "type": "address"
        },
        {
          "internalType": "address",
          "name": "to",
          "type": "address"
        },
        {
          "internalType": "uint256",
          "name": "tokenId",
          "type": "uint256"
        }
      ],
      "name": "safeTransferFrom",
      "outputs": [],
      "stateMutability": "nonpayable",
      "type": "function"
    },
    {
      "inputs": [
        {
          "internalType": "address",
          "name": "from",
          "type": "address"
        },
        {
          "internalType": "address",
          "name": "to",
          "type": "address"
        },
        {
          "internalType": "uint256",
          "name": "tokenId",
          "type": "uint256"
        },
        {
          "internalType": "bytes",
          "name": "data",
          "type": "bytes"
        }
      ],
      "name": "safeTransferFrom",
      "outputs": [],
      "stateMutability": "nonpayable",
      "type": "function"
    },
    {
      "inputs": [
        {
          "internalType": "address",
          "name": "operator",
          "type": "address"
        },
        {
          "internalType": "bool",
          "name": "approved",
          "type": "bool"
        }
      ],
      "name": "setApprovalForAll",
      "outputs": [],
      "stateMutability": "nonpayable",
      "type": "function"
    },
    {
      "inputs": [
        {
          "internalType": "bytes4",
          "name": "interfaceId",
          "type": "bytes4"
        }
      ],
      "name": "supportsInterface",
      "outputs": [
        {
          "internalType": "bool",
          "name": "",
          "type": "bool"
        }
      ],
      "stateMutability": "view",
      "type": "function"
    },
    {
      "inputs": [],
      "name": "symbol",
      "outputs": [
        {
          "internalType": "string",
          "name": "",
          "type": "string"
        }
      ],
      "stateMutability": "view",
      "type": "function"
    },
    {
      "inputs": [
        {
          "internalType": "uint256",
          "name": "id",
          "type": "uint256"
        }
      ],
      "name": "tipUser",
      "outputs": [],
      "stateMutability": "payable",
      "type": "function"
    },
    {
      "inputs": [
        {
          "internalType": "uint256",
          "name": "tokenId",
          "type": "uint256"
        }
      ],
      "name": "tokenURI",
      "outputs": [
        {
          "internalType": "string",
          "name": "",
          "type": "string"
        }
      ],
      "stateMutability": "view",
      "type": "function"
    },
    {
      "inputs": [
        {
          "internalType": "address",
          "name": "from",
          "type": "address"
        },
        {
          "internalType": "address",
          "name": "to",
          "type": "address"
        },
        {
          "internalType": "uint256",
          "name": "tokenId",
          "type": "uint256"
        }
      ],
      "name": "transferFrom",
      "outputs": [],
      "stateMutability": "nonpayable",
      "type": "function"
    },
    {
      "inputs": [
        {
          "internalType": "uint256",
          "name": "_listingPrice",
          "type": "uint256"
        }
      ],
      "name": "updateListingPrice",
      "outputs": [],
      "stateMutability": "payable",
      "type": "function"
    },
    {
      "inputs": [],
      "name": "userCount",
      "outputs": [
        {
          "internalType": "uint256",
          "name": "",
          "type": "uint256"
        }
      ],
      "stateMutability": "view",
      "type": "function"
    }
  ],
  "bytecode": "0x60806040526000600a556658d15e17628000600b553480156200002157600080fd5b50604080518082018252601081526f4c6f7665436861696e20546f6b656e7360801b6020808301918252835180850190945260048452634c43484160e01b9084015281519192916200007691600091620000a7565b5080516200008c906001906020840190620000a7565b5050600780546001600160a01b03191633179055506200018a565b828054620000b5906200014d565b90600052602060002090601f016020900481019282620000d9576000855562000124565b82601f10620000f457805160ff191683800117855562000124565b8280016001018555821562000124579182015b828111156200012457825182559160200191906001019062000107565b506200013292915062000136565b5090565b5b8082111562000132576000815560010162000137565b600181811c908216806200016257607f821691505b602082108114156200018457634e487b7160e01b600052602260045260246000fd5b50919050565b613ad8806200019a6000396000f3fe6080604052600436106101475760003560e01c806301ffc9a71461014c57806306fdde031461018157806307973ccf146101a3578063081812fc146101c7578063095ea7b3146101ff5780630e50cee5146102215780630f08efe01461025157806312e8558514610273578063202e374014610288578063223668441461029d57806323b872dd146102b257806342842e0e146102d257806345f8fa80146102f25780636352211e1461030757806370a08231146103275780638865ba661461034757806395d89b41146103695780639e0d2da81461037e578063a22cb46514610391578063ae677aa3146103b1578063b88d4fde146103c4578063be9af536146103e4578063c3374315146103f7578063c6365c4c14610419578063c87b56dd14610439578063d1d8a06814610459578063e219fc751461046c578063e985e9c51461047f575b600080fd5b34801561015857600080fd5b5061016c61016736600461300f565b61049f565b60405190151581526020015b60405180910390f35b34801561018d57600080fd5b506101966104f1565b6040516101789190613084565b3480156101af57600080fd5b506101b9600a5481565b604051908152602001610178565b3480156101d357600080fd5b506101e76101e2366004613097565b610583565b6040516001600160a01b039091168152602001610178565b34801561020b57600080fd5b5061021f61021a3660046130d9565b6105aa565b005b34801561022d57600080fd5b5061016c61023c366004613103565b600d6020526000908152604090205460ff1681565b34801561025d57600080fd5b506102666106c5565b604051610178919061311e565b34801561027f57600080fd5b50600b546101b9565b34801561029457600080fd5b506102666109fa565b3480156102a957600080fd5b5061016c610d6d565b3480156102be57600080fd5b5061021f6102cd36600461320a565b610d96565b3480156102de57600080fd5b5061021f6102ed36600461320a565b610dc7565b3480156102fe57600080fd5b50610266610de2565b34801561031357600080fd5b506101e7610322366004613097565b611155565b34801561033357600080fd5b506101b9610342366004613103565b61118a565b34801561035357600080fd5b5061035c611210565b6040516101789190613312565b34801561037557600080fd5b506101966115cf565b6101b961038c3660046133d0565b6115de565b34801561039d57600080fd5b5061021f6103ac366004613486565b611626565b61021f6103bf366004613097565b611635565b3480156103d057600080fd5b5061021f6103df3660046134c2565b6116ad565b61021f6103f2366004613097565b6116e5565b34801561040357600080fd5b5061040c61184a565b604051610178919061353d565b34801561042557600080fd5b5061021f61043436600461359f565b611cbd565b34801561044557600080fd5b50610196610454366004613097565b6120c5565b61021f610467366004613097565b6121d6565b61021f61047a366004613693565b61233f565b34801561048b57600080fd5b5061016c61049a3660046136b5565b612437565b60006001600160e01b031982166380ac58cd60e01b14806104d057506001600160e01b03198216635b5e139f60e01b145b806104eb57506301ffc9a760e01b6001600160e01b03198316145b92915050565b606060008054610500906136e8565b80601f016020809104026020016040519081016040528092919081815260200182805461052c906136e8565b80156105795780601f1061054e57610100808354040283529160200191610579565b820191906000526020600020905b81548152906001019060200180831161055c57829003601f168201915b5050505050905090565b600061058e82612465565b506000908152600460205260409020546001600160a01b031690565b60006105b582611155565b9050806001600160a01b0316836001600160a01b031614156106285760405162461bcd60e51b815260206004820152602160248201527f4552433732313a20617070726f76616c20746f2063757272656e74206f776e656044820152603960f91b60648201526084015b60405180910390fd5b336001600160a01b038216148061064457506106448133612437565b6106b65760405162461bcd60e51b815260206004820152603e60248201527f4552433732313a20617070726f76652063616c6c6572206973206e6f7420746f60448201527f6b656e206f776e6572206e6f7220617070726f76656420666f7220616c6c0000606482015260840161061f565b6106c0838361248d565b505050565b606060006106d260085490565b905060006106df60095490565b6008546106ec9190613739565b9050600080826001600160401b0381111561070957610709613325565b60405190808252806020026020018201604052801561074257816020015b61072f612e37565b8152602001906001900390816107275790505b50905060005b848110156109f15730600c6000610760846001613750565b81526020810191909152604001600020600201546001600160a01b031614156109df576000610790826001613750565b6000818152600c60209081526040918290208251610100810184528154815260018201546001600160a01b039081169382019390935260028201549092169282019290925260038201546060820152600482015460ff161515608082015260058201805493945091929091839160a08401919061080c906136e8565b80601f0160208091040260200160405190810160405280929190818152602001828054610838906136e8565b80156108855780601f1061085a57610100808354040283529160200191610885565b820191906000526020600020905b81548152906001019060200180831161086857829003601f168201915b5050505050815260200160068201805461089e906136e8565b80601f01602080910402602001604051908101604052809291908181526020018280546108ca906136e8565b80156109175780601f106108ec57610100808354040283529160200191610917565b820191906000526020600020905b8154815290600101906020018083116108fa57829003601f168201915b50505050508152602001600782018054610930906136e8565b80601f016020809104026020016040519081016040528092919081815260200182805461095c906136e8565b80156109a95780601f1061097e576101008083540402835291602001916109a9565b820191906000526020600020905b81548152906001019060200180831161098c57829003601f168201915b5050505050815250508486815181106109c4576109c4613768565b60209081029190910101526109da600186613750565b945050505b806109e98161377e565b915050610748565b50949350505050565b60606000610a0760085490565b905060008060005b83811015610a6a5733600c6000610a27846001613750565b81526020810191909152604001600020600201546001600160a01b03161415610a5857610a55600184613750565b92505b80610a628161377e565b915050610a0f565b506000826001600160401b03811115610a8557610a85613325565b604051908082528060200260200182016040528015610abe57816020015b610aab612e37565b815260200190600190039081610aa35790505b50905060005b848110156109f15733600c6000610adc846001613750565b81526020810191909152604001600020600201546001600160a01b03161415610d5b576000610b0c826001613750565b6000818152600c60209081526040918290208251610100810184528154815260018201546001600160a01b039081169382019390935260028201549092169282019290925260038201546060820152600482015460ff161515608082015260058201805493945091929091839160a084019190610b88906136e8565b80601f0160208091040260200160405190810160405280929190818152602001828054610bb4906136e8565b8015610c015780601f10610bd657610100808354040283529160200191610c01565b820191906000526020600020905b815481529060010190602001808311610be457829003601f168201915b50505050508152602001600682018054610c1a906136e8565b80601f0160208091040260200160405190810160405280929190818152602001828054610c46906136e8565b8015610c935780601f10610c6857610100808354040283529160200191610c93565b820191906000526020600020905b815481529060010190602001808311610c7657829003601f168201915b50505050508152602001600782018054610cac906136e8565b80601f0160208091040260200160405190810160405280929190818152602001828054610cd8906136e8565b8015610d255780601f10610cfa57610100808354040283529160200191610d25565b820191906000526020600020905b815481529060010190602001808311610d0857829003601f168201915b505050505081525050848681518110610d4057610d40613768565b6020908102919091010152610d56600186613750565b945050505b80610d658161377e565b915050610ac4565b336000908152600d602052604081205460ff16151560011415610d905750600190565b50600090565b610da033826124fb565b610dbc5760405162461bcd60e51b815260040161061f90613799565b6106c0838383612559565b6106c0838383604051806020016040528060008152506116ad565b60606000610def60085490565b905060008060005b83811015610e525733600c6000610e0f846001613750565b81526020810191909152604001600020600101546001600160a01b03161415610e4057610e3d600184613750565b92505b80610e4a8161377e565b915050610df7565b506000826001600160401b03811115610e6d57610e6d613325565b604051908082528060200260200182016040528015610ea657816020015b610e93612e37565b815260200190600190039081610e8b5790505b50905060005b848110156109f15733600c6000610ec4846001613750565b81526020810191909152604001600020600101546001600160a01b03161415611143576000610ef4826001613750565b6000818152600c60209081526040918290208251610100810184528154815260018201546001600160a01b039081169382019390935260028201549092169282019290925260038201546060820152600482015460ff161515608082015260058201805493945091929091839160a084019190610f70906136e8565b80601f0160208091040260200160405190810160405280929190818152602001828054610f9c906136e8565b8015610fe95780601f10610fbe57610100808354040283529160200191610fe9565b820191906000526020600020905b815481529060010190602001808311610fcc57829003601f168201915b50505050508152602001600682018054611002906136e8565b80601f016020809104026020016040519081016040528092919081815260200182805461102e906136e8565b801561107b5780601f106110505761010080835404028352916020019161107b565b820191906000526020600020905b81548152906001019060200180831161105e57829003601f168201915b50505050508152602001600782018054611094906136e8565b80601f01602080910402602001604051908101604052809291908181526020018280546110c0906136e8565b801561110d5780601f106110e25761010080835404028352916020019161110d565b820191906000526020600020905b8154815290600101906020018083116110f057829003601f168201915b50505050508152505084868151811061112857611128613768565b602090810291909101015261113e600186613750565b945050505b8061114d8161377e565b915050610eac565b6000818152600260205260408120546001600160a01b0316806104eb5760405162461bcd60e51b815260040161061f906137e7565b60006001600160a01b0382166111f45760405162461bcd60e51b815260206004820152602960248201527f4552433732313a2061646472657373207a65726f206973206e6f7420612076616044820152683634b21037bbb732b960b91b606482015260840161061f565b506001600160a01b031660009081526003602052604090205490565b611218612e90565b336000908152600f60209081526040918290208251610120810184528154815260018201546001600160a01b0316928101929092526002810180549293919291840191611264906136e8565b80601f0160208091040260200160405190810160405280929190818152602001828054611290906136e8565b80156112dd5780601f106112b2576101008083540402835291602001916112dd565b820191906000526020600020905b8154815290600101906020018083116112c057829003601f168201915b505050505081526020016003820180546112f6906136e8565b80601f0160208091040260200160405190810160405280929190818152602001828054611322906136e8565b801561136f5780601f106113445761010080835404028352916020019161136f565b820191906000526020600020905b81548152906001019060200180831161135257829003601f168201915b50505050508152602001600482018054611388906136e8565b80601f01602080910402602001604051908101604052809291908181526020018280546113b4906136e8565b80156114015780601f106113d657610100808354040283529160200191611401565b820191906000526020600020905b8154815290600101906020018083116113e457829003601f168201915b5050505050815260200160058201805461141a906136e8565b80601f0160208091040260200160405190810160405280929190818152602001828054611446906136e8565b80156114935780601f1061146857610100808354040283529160200191611493565b820191906000526020600020905b81548152906001019060200180831161147657829003601f168201915b505050505081526020016006820180546114ac906136e8565b80601f01602080910402602001604051908101604052809291908181526020018280546114d8906136e8565b80156115255780601f106114fa57610100808354040283529160200191611525565b820191906000526020600020905b81548152906001019060200180831161150857829003601f168201915b5050505050815260200160078201805461153e906136e8565b80601f016020809104026020016040519081016040528092919081815260200182805461156a906136e8565b80156115b75780601f1061158c576101008083540402835291602001916115b7565b820191906000526020600020905b81548152906001019060200180831161159a57829003601f168201915b50505050508152602001600882015481525050905090565b606060018054610500906136e8565b60006115ee600880546001019055565b60006115f960085490565b905061160533826126e3565b61160f8188612803565b61161c818787878761288e565b9695505050505050565b611631338383612a49565b5050565b6007546001600160a01b031633146116a85760405162461bcd60e51b815260206004820152603060248201527f4f6e6c79206d61726b6574706c616365206f776e65722063616e20757064617460448201526f32903634b9ba34b73390383934b1b29760811b606482015260840161061f565b600b55565b6116b733836124fb565b6116d35760405162461bcd60e51b815260040161061f90613799565b6116df84848484612b14565b50505050565b6000818152600c6020526040902060038101546001909101546001600160a01b031634821461177e576040805162461bcd60e51b81526020600482015260248101919091527f506c65617365207375626d6974207468652061736b696e67207072696365206960448201527f6e206f7264657220746f20636f6d706c65746520746865207075726368617365606482015260840161061f565b6000838152600c602052604090206002810180546001600160a01b0319908116331790915560048201805460ff19166001908117909155909101805490911690556117cd600980546001019055565b6117d8303385612559565b600754600b546040516001600160a01b039092169181156108fc0291906000818181858888f19350505050158015611814573d6000803e3d6000fd5b506040516001600160a01b038216903480156108fc02916000818181858888f193505050501580156116df573d6000803e3d6000fd5b600a54606090600080826001600160401b0381111561186b5761186b613325565b6040519080825280602002602001820160405280156118a457816020015b611891612e90565b8152602001906001900390816118895790505b50905060005b83811015611cb55760006118bf826001613750565b6000818152600e60209081526040918290208251610120810184528154815260018201546001600160a01b0316928101929092526002810180549495509093919284929084019190611910906136e8565b80601f016020809104026020016040519081016040528092919081815260200182805461193c906136e8565b80156119895780601f1061195e57610100808354040283529160200191611989565b820191906000526020600020905b81548152906001019060200180831161196c57829003601f168201915b505050505081526020016003820180546119a2906136e8565b80601f01602080910402602001604051908101604052809291908181526020018280546119ce906136e8565b8015611a1b5780601f106119f057610100808354040283529160200191611a1b565b820191906000526020600020905b8154815290600101906020018083116119fe57829003601f168201915b50505050508152602001600482018054611a34906136e8565b80601f0160208091040260200160405190810160405280929190818152602001828054611a60906136e8565b8015611aad5780601f10611a8257610100808354040283529160200191611aad565b820191906000526020600020905b815481529060010190602001808311611a9057829003601f168201915b50505050508152602001600582018054611ac6906136e8565b80601f0160208091040260200160405190810160405280929190818152602001828054611af2906136e8565b8015611b3f5780601f10611b1457610100808354040283529160200191611b3f565b820191906000526020600020905b815481529060010190602001808311611b2257829003601f168201915b50505050508152602001600682018054611b58906136e8565b80601f0160208091040260200160405190810160405280929190818152602001828054611b84906136e8565b8015611bd15780601f10611ba657610100808354040283529160200191611bd1565b820191906000526020600020905b815481529060010190602001808311611bb457829003601f168201915b50505050508152602001600782018054611bea906136e8565b80601f0160208091040260200160405190810160405280929190818152602001828054611c16906136e8565b8015611c635780601f10611c3857610100808354040283529160200191611c63565b820191906000526020600020905b815481529060010190602001808311611c4657829003601f168201915b50505050508152602001600882015481525050848681518110611c8857611c88613768565b6020908102919091010152611c9e600186613750565b945050508080611cad9061377e565b9150506118aa565b509392505050565b336000908152600d602052604090205460ff166120bd57600a8054906000611ce48361377e565b9091555050600a546000818152600e6020908152604080832033808552600f8452919093209383556001830180546001600160a01b03191690911790558851919291611d38916002850191908b0190612ee5565b508651611d4e90600384019060208a0190612ee5565b508551611d649060048401906020890190612ee5565b508451611d7a9060058401906020880190612ee5565b508351611d909060068401906020870190612ee5565b508251611da69060078401906020860190612ee5565b50600060088301819055338152600d60209081526040909120805460ff19166001179055600a5482558851611de3916002840191908b0190612ee5565b508651611df990600383019060208a0190612ee5565b508551611e0f9060048301906020890190612ee5565b508451611e259060058301906020880190612ee5565b508351611e3b9060068301906020870190612ee5565b508251611e519060078301906020860190612ee5565b5060018181018054336001600160a01b0319918216811783556000908152600f6020526040902084548155915492820180546001600160a01b0390941693909116929092179091556002808301805484939283019190611eb0906136e8565b611ebb929190612f69565b506003820181600301908054611ed0906136e8565b611edb929190612f69565b506004820181600401908054611ef0906136e8565b611efb929190612f69565b506005820181600501908054611f10906136e8565b611f1b929190612f69565b506006820181600601908054611f30906136e8565b611f3b929190612f69565b506007820181600701908054611f50906136e8565b611f5b929190612f69565b50600891820154910155600a546000908152600e602052604090208254815560018084015490820180546001600160a01b0319166001600160a01b039092169190911790556002808401805485939283019190611fb7906136e8565b611fc2929190612f69565b506003820181600301908054611fd7906136e8565b611fe2929190612f69565b506004820181600401908054611ff7906136e8565b612002929190612f69565b506005820181600501908054612017906136e8565b612022929190612f69565b506006820181600601908054612037906136e8565b612042929190612f69565b506007820181600701908054612057906136e8565b612062929190612f69565b50600891820154908201558254908301546040517f89f1c074f6874cb060b9a3b0b1696e9399f45c7a3d370d3ea63fa76bf1f4e5f3926120b292909133918d918d918d918d918d918d9190613819565b60405180910390a150505b505050505050565b60606120d082612465565b600082815260066020526040812080546120e9906136e8565b80601f0160208091040260200160405190810160405280929190818152602001828054612115906136e8565b80156121625780601f1061213757610100808354040283529160200191612162565b820191906000526020600020905b81548152906001019060200180831161214557829003601f168201915b50505050509050600061218060408051602081019091526000815290565b9050805160001415612193575092915050565b8151156121c55780826040516020016121ad9291906138c0565b60405160208183030381529060405292505050919050565b6121ce84612b47565b949350505050565b6000818152600e60205260408082206001810154915190926001600160a01b03909216913480156108fc02929091818181858888f19350505050158015612221573d6000803e3d6000fd5b503481600801546122329190613750565b60088201556000828152600e602052604090208154815560018083015490820180546001600160a01b0319166001600160a01b039092169190911790556002808301805484939283019190612286906136e8565b612291929190612f69565b5060038201816003019080546122a6906136e8565b6122b1929190612f69565b5060048201816004019080546122c6906136e8565b6122d1929190612f69565b5060058201816005019080546122e6906136e8565b6122f1929190612f69565b506006820181600601908054612306906136e8565b612311929190612f69565b506007820181600701908054612326906136e8565b612331929190612f69565b506008918201549101555050565b6000828152600c60205260409020600201546001600160a01b031633146123bb5760405162461bcd60e51b815260206004820152602a60248201527f4f6e6c79206974656d206f776e65722063616e20706572666f726d20746869736044820152691037b832b930ba34b7b760b11b606482015260840161061f565b600b5434146123dc5760405162461bcd60e51b815260040161061f906138ef565b6000828152600c6020526040902060048101805460ff19169055600381018290556001810180546001600160a01b03199081163317909155600290910180549091163017905561242c6009612bbb565b611631333084612559565b6001600160a01b03918216600090815260056020908152604080832093909416825291909152205460ff1690565b61246e81612c10565b61248a5760405162461bcd60e51b815260040161061f906137e7565b50565b600081815260046020526040902080546001600160a01b0319166001600160a01b03841690811790915581906124c282611155565b6001600160a01b03167f8c5be1e5ebec7d5bd14f71427d1e84f3dd0314c0f7b2291e5b200ac8c7c3b92560405160405180910390a45050565b60008061250783611155565b9050806001600160a01b0316846001600160a01b0316148061252e575061252e8185612437565b806121ce5750836001600160a01b031661254784610583565b6001600160a01b031614949350505050565b826001600160a01b031661256c82611155565b6001600160a01b0316146125d05760405162461bcd60e51b815260206004820152602560248201527f4552433732313a207472616e736665722066726f6d20696e636f72726563742060448201526437bbb732b960d91b606482015260840161061f565b6001600160a01b0382166126325760405162461bcd60e51b8152602060048201526024808201527f4552433732313a207472616e7366657220746f20746865207a65726f206164646044820152637265737360e01b606482015260840161061f565b61263d60008261248d565b6001600160a01b0383166000908152600360205260408120805460019290612666908490613739565b90915550506001600160a01b0382166000908152600360205260408120805460019290612694908490613750565b909155505060008181526002602052604080822080546001600160a01b0319166001600160a01b038681169182179092559151849391871691600080516020613a8383398151915291a4505050565b6001600160a01b0382166127395760405162461bcd60e51b815260206004820181905260248201527f4552433732313a206d696e7420746f20746865207a65726f2061646472657373604482015260640161061f565b61274281612c10565b1561278e5760405162461bcd60e51b815260206004820152601c60248201527b115490cdcc8c4e881d1bdad95b88185b1c9958591e481b5a5b9d195960221b604482015260640161061f565b6001600160a01b03821660009081526003602052604081208054600192906127b7908490613750565b909155505060008181526002602052604080822080546001600160a01b0319166001600160a01b0386169081179091559051839290600080516020613a83833981519152908290a45050565b61280c82612c10565b61286f5760405162461bcd60e51b815260206004820152602e60248201527f45524337323155524953746f726167653a2055524920736574206f66206e6f6e60448201526d32bc34b9ba32b73a103a37b5b2b760911b606482015260840161061f565b600082815260066020908152604090912082516106c092840190612ee5565b600084116128dd5760405162461bcd60e51b815260206004820152601c60248201527b5072696365206d757374206265206174206c6561737420312077656960201b604482015260640161061f565b600b5434146128fe5760405162461bcd60e51b815260040161061f906138ef565b6040805161010081018252868152336020808301918252308385019081526060840189815260006080860181815260a087018b815260c088018b905260e088018a90528d8352600c8652979091208651815594516001860180546001600160a01b03199081166001600160a01b039384161790915593516002870180549095169116179092555160038401555160048301805460ff191691151591909117905592518051929391926129b69260058501920190612ee5565b5060c082015180516129d2916006840191602090910190612ee5565b5060e082015180516129ee916007840191602090910190612ee5565b509050506129fd333087612559565b847f92d5fdcbed7ff2adc67c1a3e81b1f62968651ced121e6ea00b2a9edbf1882d603330876000888888604051612a3a9796959493929190613933565b60405180910390a25050505050565b816001600160a01b0316836001600160a01b03161415612aa75760405162461bcd60e51b815260206004820152601960248201527822a9219b99189d1030b8383937bb32903a379031b0b63632b960391b604482015260640161061f565b6001600160a01b03838116600081815260056020908152604080832094871680845294825291829020805460ff191686151590811790915591519182527f17307eab39ab6107e8899845ad3d59bd9653f200f220920489ca2b5937696c31910160405180910390a3505050565b612b1f848484612559565b612b2b84848484612c2d565b6116df5760405162461bcd60e51b815260040161061f906139a2565b6060612b5282612465565b6000612b6960408051602081019091526000815290565b90506000815111612b895760405180602001604052806000815250612bb4565b80612b9384612d3a565b604051602001612ba49291906138c0565b6040516020818303038152906040525b9392505050565b805480612c085760405162461bcd60e51b815260206004820152601b60248201527a436f756e7465723a2064656372656d656e74206f766572666c6f7760281b604482015260640161061f565b600019019055565b6000908152600260205260409020546001600160a01b0316151590565b60006001600160a01b0384163b15612d2f57604051630a85bd0160e11b81526001600160a01b0385169063150b7a0290612c719033908990889088906004016139f4565b602060405180830381600087803b158015612c8b57600080fd5b505af1925050508015612cbb575060408051601f3d908101601f19168201909252612cb891810190613a27565b60015b612d15573d808015612ce9576040519150601f19603f3d011682016040523d82523d6000602084013e612cee565b606091505b508051612d0d5760405162461bcd60e51b815260040161061f906139a2565b805181602001fd5b6001600160e01b031916630a85bd0160e11b1490506121ce565b506001949350505050565b606081612d5e5750506040805180820190915260018152600360fc1b602082015290565b8160005b8115612d885780612d728161377e565b9150612d819050600a83613a5a565b9150612d62565b6000816001600160401b03811115612da257612da2613325565b6040519080825280601f01601f191660200182016040528015612dcc576020820181803683370190505b5090505b84156121ce57612de1600183613739565b9150612dee600a86613a6e565b612df9906030613750565b60f81b818381518110612e0e57612e0e613768565b60200101906001600160f81b031916908160001a905350612e30600a86613a5a565b9450612dd0565b6040518061010001604052806000815260200160006001600160a01b0316815260200160006001600160a01b03168152602001600081526020016000151581526020016060815260200160608152602001606081525090565b6040518061012001604052806000815260200160006001600160a01b03168152602001606081526020016060815260200160608152602001606081526020016060815260200160608152602001600081525090565b828054612ef1906136e8565b90600052602060002090601f016020900481019282612f135760008555612f59565b82601f10612f2c57805160ff1916838001178555612f59565b82800160010185558215612f59579182015b82811115612f59578251825591602001919060010190612f3e565b50612f65929150612fe4565b5090565b828054612f75906136e8565b90600052602060002090601f016020900481019282612f975760008555612f59565b82601f10612fa85780548555612f59565b82800160010185558215612f5957600052602060002091601f016020900482015b82811115612f59578254825591600101919060010190612fc9565b5b80821115612f655760008155600101612fe5565b6001600160e01b03198116811461248a57600080fd5b60006020828403121561302157600080fd5b8135612bb481612ff9565b60005b8381101561304757818101518382015260200161302f565b838111156116df5750506000910152565b6000815180845261307081602086016020860161302c565b601f01601f19169290920160200192915050565b602081526000612bb46020830184613058565b6000602082840312156130a957600080fd5b5035919050565b6001600160a01b03169052565b80356001600160a01b03811681146130d457600080fd5b919050565b600080604083850312156130ec57600080fd5b6130f5836130bd565b946020939093013593505050565b60006020828403121561311557600080fd5b612bb4826130bd565b60006020808301818452808551808352604092508286019150828160051b87010184880160005b838110156131fc57603f198984030185528151610100815185528882015161316f8a8701826130b0565b5087820151613180898701826130b0565b506060828101519086015260808083015115159086015260a0808301518187018390526131af83880182613058565b9250505060c080830151868303828801526131ca8382613058565b9250505060e080830151925085820381870152506131e88183613058565b968901969450505090860190600101613145565b509098975050505050505050565b60008060006060848603121561321f57600080fd5b613228846130bd565b9250613236602085016130bd565b9150604084013590509250925092565b600061012082518452602083015161326160208601826130b0565b50604083015181604086015261327982860182613058565b915050606083015184820360608601526132938282613058565b915050608083015184820360808601526132ad8282613058565b91505060a083015184820360a08601526132c78282613058565b91505060c083015184820360c08601526132e18282613058565b91505060e083015184820360e08601526132fb8282613058565b610100948501519590940194909452509092915050565b602081526000612bb46020830184613246565b634e487b7160e01b600052604160045260246000fd5b60006001600160401b038084111561335557613355613325565b604051601f8501601f19908116603f0116810190828211818310171561337d5761337d613325565b8160405280935085815286868601111561339657600080fd5b858560208301376000602087830101525050509392505050565b600082601f8301126133c157600080fd5b612bb48383356020850161333b565b600080600080600060a086880312156133e857600080fd5b85356001600160401b03808211156133ff57600080fd5b61340b89838a016133b0565b965060208801359550604088013591508082111561342857600080fd5b61343489838a016133b0565b9450606088013591508082111561344a57600080fd5b61345689838a016133b0565b9350608088013591508082111561346c57600080fd5b50613479888289016133b0565b9150509295509295909350565b6000806040838503121561349957600080fd5b6134a2836130bd565b9150602083013580151581146134b757600080fd5b809150509250929050565b600080600080608085870312156134d857600080fd5b6134e1856130bd565b93506134ef602086016130bd565b92506040850135915060608501356001600160401b0381111561351157600080fd5b8501601f8101871361352257600080fd5b6135318782356020840161333b565b91505092959194509250565b6000602080830181845280855180835260408601915060408160051b870101925083870160005b8281101561359257603f19888603018452613580858351613246565b94509285019290850190600101613564565b5092979650505050505050565b60008060008060008060c087890312156135b857600080fd5b86356001600160401b03808211156135cf57600080fd5b6135db8a838b016133b0565b975060208901359150808211156135f157600080fd5b6135fd8a838b016133b0565b9650604089013591508082111561361357600080fd5b61361f8a838b016133b0565b9550606089013591508082111561363557600080fd5b6136418a838b016133b0565b9450608089013591508082111561365757600080fd5b6136638a838b016133b0565b935060a089013591508082111561367957600080fd5b5061368689828a016133b0565b9150509295509295509295565b600080604083850312156136a657600080fd5b50508035926020909101359150565b600080604083850312156136c857600080fd5b6136d1836130bd565b91506136df602084016130bd565b90509250929050565b600181811c908216806136fc57607f821691505b6020821081141561371d57634e487b7160e01b600052602260045260246000fd5b50919050565b634e487b7160e01b600052601160045260246000fd5b60008282101561374b5761374b613723565b500390565b6000821982111561376357613763613723565b500190565b634e487b7160e01b600052603260045260246000fd5b600060001982141561379257613792613723565b5060010190565b6020808252602e908201527f4552433732313a2063616c6c6572206973206e6f7420746f6b656e206f776e6560408201526d1c881b9bdc88185c1c1c9bdd995960921b606082015260800190565b602080825260189082015277115490cdcc8c4e881a5b9d985b1a59081d1bdad95b88125160421b604082015260600190565b8981526001600160a01b0389166020820152610120604082018190526000906138448382018b613058565b90508281036060840152613858818a613058565b9050828103608084015261386c8189613058565b905082810360a08401526138808188613058565b905082810360c08401526138948187613058565b905082810360e08401526138a88186613058565b915050826101008301529a9950505050505050505050565b600083516138d281846020880161302c565b8351908301906138e681836020880161302c565b01949350505050565b60208082526024908201527f5072696365206d75737420626520657175616c20746f206c697374696e6720706040820152637269636560e01b606082015260800190565b6001600160a01b0388811682528716602082015260408101869052841515606082015260e06080820181905260009061396e90830186613058565b82810360a08401526139808186613058565b905082810360c08401526139948185613058565b9a9950505050505050505050565b60208082526032908201527f4552433732313a207472616e7366657220746f206e6f6e20455243373231526560408201527131b2b4bb32b91034b6b83632b6b2b73a32b960711b606082015260800190565b6001600160a01b038581168252841660208201526040810183905260806060820181905260009061161c90830184613058565b600060208284031215613a3957600080fd5b8151612bb481612ff9565b634e487b7160e01b600052601260045260246000fd5b600082613a6957613a69613a44565b500490565b600082613a7d57613a7d613a44565b50069056feddf252ad1be2c89b69c2b068fc378daa952ba7f163c4a11628f55a4df523b3efa26469706673582212208ca6cbbdde9f90e314b107c51999f44e2164e8e3199158b993f7ea5a30839f8a64736f6c63430008090033",
  "linkReferences": {},
  "deployedLinkReferences": {}
}